:1000000002EF00F07F9C7F8E6CECFFF080ECFFF045
:100010000AEF00F004EE00F0010EF86EFE0EF76E2F
:10002000CA0EF66E0D0E056E0900F5CFEEFF052E19
:10003000FBD70D0E24EE00F075ECFFF00D0EFF0F58
:1000400024EE00F0ABECFFF084B0B2ECFFF027EF51
:0800500000F0062EFED712009D
:020000040001F9
:10FECA0048656C6C6F20576F726C64210A00AB8EA8
:10FEDA00AC98AC94AC8A6596670EAF6E948C12009F
:10FEEA00076EDE507CECFFF0072EFBD712009EA8AF
:10FEFA00FED7AD6E12008A6AC00E936E280EEAEC27
:10FF0A00FFF0300EB9ECFFF00A0EF1ECFFF0280E0C
:10FF1A00B9ECFFF00A0EF1ECFFF0280EB9ECFFF095
:10FF2A000A0EF1ECFFF00F0EB9ECFFF00A0EF1EC3D
:10FF3A00FFF0010EB9ECFFF0020EEAECFFF0060E3C
:10FF4A00B9ECFFF00A0EF1ECFFF01200046EDE507D
:10FF5A00C7ECFFF0042EFBD71200010EB9ECFFF03C
:10FF6A00020EEAECFFF01200036E03380F0B8A6EE2
:10FF7A008A98D8ECFFF003500F0B8A6E8A98D8EC57
:10FF8A00FFF01200036E03380F0B8A6E8A88D8ECD2
:10FF9A00FFF003500F0B8A6E8A88D8ECFFF00A0E26
:10FFAA00F1ECFFF012000000000000000000000069
:10FFBA000000000000008A8A000000000000000023
:10FFCA000000000000008A9A1200026EFA0EF1EC9C
:10FFDA00FFF0022EFBD71200006E003A0F0E00143B
:10FFEA00016EF00E0016FBECFFF01200000E000688
:06FFFA00015AFDE21200B5
:020000040030CA
:0700000015137F7CF98B91C1
:06000800FFC0FFE0FF4015
:0200000400F00A
:020000009680E8
:00000001FF
